{
  "_format": "hh-sol-artifact-1",
  "contractName": "SafeEIP7702Proxy",
  "sourceName": "contracts/SafeEIP7702Proxy.sol",
  "abi": [
    {
      "inputs": [
        {
          "internalType": "bytes32",
          "name": "setupDataHash",
          "type": "bytes32"
        },
        {
          "internalType": "address",
          "name": "singleton",
          "type": "address"
        }
      ],
      "stateMutability": "nonpayable",
      "type": "constructor"
    },
    {
      "inputs": [
        {
          "internalType": "bytes32",
          "name": "expectedHash",
          "type": "bytes32"
        },
        {
          "internalType": "bytes32",
          "name": "receivedHash",
          "type": "bytes32"
        }
      ],
      "name": "InvalidSetupData",
      "type": "error"
    },
    {
      "stateMutability": "payable",
      "type": "fallback"
    },
    {
      "inputs": [
        {
          "internalType": "address[]",
          "name": "",
          "type": "address[]"
        },
        {
          "internalType": "uint256",
          "name": "",
          "type": "uint256"
        },
        {
          "internalType": "address",
          "name": "",
          "type": "address"
        },
        {
          "internalType": "bytes",
          "name": "",
          "type": "bytes"
        },
        {
          "internalType": "address",
          "name": "",
          "type": "address"
        },
        {
          "internalType": "address",
          "name": "",
          "type": "address"
        },
        {
          "internalType": "uint256",
          "name": "",
          "type": "uint256"
        },
        {
          "internalType": "address payable",
          "name": "",
          "type": "address"
        }
      ],
      "name": "setup",
      "outputs": [],
      "stateMutability": "nonpayable",
      "type": "function"
    }
  ],
  "bytecode": "0x60c060405234801561001057600080fd5b5060405161048f38038061048f83398101604081905261002f916100c0565b806001600160a01b0381166100955760405162461bcd60e51b815260206004820152602260248201527f496e76616c69642073696e676c65746f6e20616464726573732070726f766964604482015261195960f21b606482015260840160405180910390fd5b600080546001600160a01b0319166001600160a01b039283161790556080929092521660a0526100fd565b600080604083850312156100d357600080fd5b825160208401519092506001600160a01b03811681146100f257600080fd5b809150509250929050565b60805160a05161036e61012160003960006101600152600060d0015261036e6000f3fe60806040526004361061001e5760003560e01c8063b63e800d1461008f575b73ffffffffffffffffffffffffffffffffffffffff600054167fa619486e000000000000000000000000000000000000000000000000000000006000350361006a578060005260206000f35b3660008037600080366000845af490503d6000803e80610089573d6000fd5b503d6000f35b34801561009b57600080fd5b506100af6100aa36600461022b565b6100b1565b005b600080366040516100c3929190610328565b60405190819003902090507f000000000000000000000000000000000000000000000000000000000000000081818114610136576040517fad43fc9a0000000000000000000000000000000000000000000000000000000081526004810192909252602482015260440160405180910390fd5b5050600080547fffffffffffffffffffffffff0000000000000000000000000000000000000000167f000000000000000000000000000000000000000000000000000000000000000073ffffffffffffffffffffffffffffffffffffffff1690811782559036908037600080366000845af490503d6000803e80610089573d6000fd5b803573ffffffffffffffffffffffffffffffffffffffff811681146101dd57600080fd5b919050565b60008083601f8401126101f457600080fd5b50813567ffffffffffffffff81111561020c57600080fd5b60208301915083602082850101111561022457600080fd5b9250929050565b6000806000806000806000806000806101008b8d03121561024b57600080fd5b8a3567ffffffffffffffff81111561026257600080fd5b8b01601f81018d1361027357600080fd5b803567ffffffffffffffff81111561028a57600080fd5b8d60208260051b840101111561029f57600080fd5b60209182019b5099508b013597506102b960408c016101b9565b965060608b013567ffffffffffffffff8111156102d557600080fd5b6102e18d828e016101e2565b90975095506102f4905060808c016101b9565b935061030260a08c016101b9565b925060c08b0135915061031760e08c016101b9565b90509295989b9194979a5092959850565b818382376000910190815291905056fea26469706673582212209559a3d725a6d9d9866b6205a7c0609b5537c79d708bb2a5592eed247e956ec364736f6c634300081b0033",
  "linkReferences": {},
  "deployedLinkReferences": {}
}