{
  "address": "0x163a9682d66f27C468b84828Ae3F1060Dbd0FEa0",
  "abi": [
    {
      "anonymous": false,
      "inputs": [
        {
          "indexed": true,
          "internalType": "address",
          "name": "account",
          "type": "address"
        }
      ],
      "name": "AccountStorageCleared",
      "type": "event"
    },
    {
      "inputs": [],
      "name": "clearSafeStorage",
      "outputs": [],
      "stateMutability": "nonpayable",
      "type": "function"
    },
    {
      "inputs": [],
      "name": "clearSafeStorageDelegateCallReciever",
      "outputs": [],
      "stateMutability": "nonpayable",
      "type": "function"
    },
    {
      "inputs": [
        {
          "internalType": "bytes32[]",
          "name": "slots",
          "type": "bytes32[]"
        }
      ],
      "name": "clearStorageSlots",
      "outputs": [],
      "stateMutability": "nonpayable",
      "type": "function"
    }
  ],
  "args": [],
  "numDeployments": 7,
  "solcInputHash": "85bc457e0c0ef74e136185c59ff1ffda",
  "bytecode": "0x60a0604052348015600f57600080fd5b50306080526080516105e361002e600039600060c801526105e36000f3fe608060405234801561001057600080fd5b50600436106100415760003560e01c806324f30d311461004657806360e61bd014610050578063af535ca914610063575b600080fd5b61004e61006b565b005b61004e61005e366004610493565b610075565b61004e6100b1565b6100736101a0565b565b60005b81518110156100ad5760008282815181106100955761009561057e565b60209081029190910101516000905550600101610078565b5050565b73ffffffffffffffffffffffffffffffffffffffff7f000000000000000000000000000000000000000000000000000000000000000016300361006b576040517f08c379a000000000000000000000000000000000000000000000000000000000815260206004820152604b60248201527f636c6561725361666553746f7261676544656c656761746543616c6c5265636960448201527f657665722073686f756c64206f6e6c792062652063616c6c656420766961206460648201527f656c656761746563616c6c000000000000000000000000000000000000000000608482015260a40160405180910390fd5b6101a8610238565b6101b061034e565b6000600381905560048190556005819055600681905560017f6c9a6c4a39284e37ed1cf53d337577d14212a4870fb976a4366c693b939918d5557f4a204f620c8c5ccdca3fd54d003badd85ba500436a431f0cbda4f558c93c34c881905560405130917f9fe882a15d23ea569936bd044460fe3a10f89eca83ee94d343ce024620eb28dc91a2565b600160008190526020527fcc69885fda6bcc1a4ace058b4a62bf5e179ea78fd58a1ccd71c22cc9b688792f5473ffffffffffffffffffffffffffffffffffffffff16806102825750565b60015b73ffffffffffffffffffffffffffffffffffffffff82166001146102f9575073ffffffffffffffffffffffffffffffffffffffff808216600090815260016020526040902080547fffffffffffffffffffffffff000000000000000000000000000000000000000081169091551690610285565b5050600160008190526020527fcc69885fda6bcc1a4ace058b4a62bf5e179ea78fd58a1ccd71c22cc9b688792f80547fffffffffffffffffffffffff0000000000000000000000000000000000000000169055565b600160005260026020527fe90b7bceb6e7df5418fb78d8ee546e97c83a08bbccc01a0644d599ccd2a7c2e05473ffffffffffffffffffffffffffffffffffffffff16806103985750565b60015b73ffffffffffffffffffffffffffffffffffffffff821660011461040f575073ffffffffffffffffffffffffffffffffffffffff808216600090815260026020526040902080547fffffffffffffffffffffffff00000000000000000000000000000000000000008116909155169061039b565b5050600160005260026020527fe90b7bceb6e7df5418fb78d8ee546e97c83a08bbccc01a0644d599ccd2a7c2e080547fffffffffffffffffffffffff0000000000000000000000000000000000000000169055565b7f4e487b7100000000000000000000000000000000000000000000000000000000600052604160045260246000fd5b6000602082840312156104a557600080fd5b813567ffffffffffffffff8111156104bc57600080fd5b8201601f810184136104cd57600080fd5b803567ffffffffffffffff8111156104e7576104e7610464565b8060051b6040517fffffffffffffffffffffffffffffffffffffffffffffffffffffffffffffffe0603f830116810181811067ffffffffffffffff8211171561053257610532610464565b60405291825260208184018101929081018784111561055057600080fd5b6020850194505b8385101561057357843580825260209586019590935001610557565b509695505050505050565b7f4e487b7100000000000000000000000000000000000000000000000000000000600052603260045260246000fdfea264697066735822122026336200f10b6522e5ca28c5f3d74c53770d121766c4a6d275552b439404692664736f6c634300081b0033",
  "devdoc": {
    "kind": "dev",
    "methods": {},
    "version": 1
  },
  "userdoc": {
    "kind": "user",
    "methods": {},
    "version": 1
  },
  "storageLayout": {
    "storage": [
      {
        "astId": 2860,
        "contract": "contracts/ClearStorageHelper.sol:ClearStorageHelper",
        "label": "singleton",
        "offset": 0,
        "slot": "0",
        "type": "t_address"
      },
      {
        "astId": 2864,
        "contract": "contracts/ClearStorageHelper.sol:ClearStorageHelper",
        "label": "modules",
        "offset": 0,
        "slot": "1",
        "type": "t_mapping(t_address,t_address)"
      },
      {
        "astId": 2868,
        "contract": "contracts/ClearStorageHelper.sol:ClearStorageHelper",
        "label": "owners",
        "offset": 0,
        "slot": "2",
        "type": "t_mapping(t_address,t_address)"
      },
      {
        "astId": 2870,
        "contract": "contracts/ClearStorageHelper.sol:ClearStorageHelper",
        "label": "ownerCount",
        "offset": 0,
        "slot": "3",
        "type": "t_uint256"
      },
      {
        "astId": 2872,
        "contract": "contracts/ClearStorageHelper.sol:ClearStorageHelper",
        "label": "threshold",
        "offset": 0,
        "slot": "4",
        "type": "t_uint256"
      },
      {
        "astId": 2874,
        "contract": "contracts/ClearStorageHelper.sol:ClearStorageHelper",
        "label": "nonce",
        "offset": 0,
        "slot": "5",
        "type": "t_uint256"
      },
      {
        "astId": 2876,
        "contract": "contracts/ClearStorageHelper.sol:ClearStorageHelper",
        "label": "_deprecatedDomainSeparator",
        "offset": 0,
        "slot": "6",
        "type": "t_bytes32"
      },
      {
        "astId": 2880,
        "contract": "contracts/ClearStorageHelper.sol:ClearStorageHelper",
        "label": "signedMessages",
        "offset": 0,
        "slot": "7",
        "type": "t_mapping(t_bytes32,t_uint256)"
      },
      {
        "astId": 2886,
        "contract": "contracts/ClearStorageHelper.sol:ClearStorageHelper",
        "label": "approvedHashes",
        "offset": 0,
        "slot": "8",
        "type": "t_mapping(t_address,t_mapping(t_bytes32,t_uint256))"
      }
    ],
    "types": {
      "t_address": {
        "encoding": "inplace",
        "label": "address",
        "numberOfBytes": "20"
      },
      "t_bytes32": {
        "encoding": "inplace",
        "label": "bytes32",
        "numberOfBytes": "32"
      },
      "t_mapping(t_address,t_address)": {
        "encoding": "mapping",
        "key": "t_address",
        "label": "mapping(address => address)",
        "numberOfBytes": "32",
        "value": "t_address"
      },
      "t_mapping(t_address,t_mapping(t_bytes32,t_uint256))": {
        "encoding": "mapping",
        "key": "t_address",
        "label": "mapping(address => mapping(bytes32 => uint256))",
        "numberOfBytes": "32",
        "value": "t_mapping(t_bytes32,t_uint256)"
      },
      "t_mapping(t_bytes32,t_uint256)": {
        "encoding": "mapping",
        "key": "t_bytes32",
        "label": "mapping(bytes32 => uint256)",
        "numberOfBytes": "32",
        "value": "t_uint256"
      },
      "t_uint256": {
        "encoding": "inplace",
        "label": "uint256",
        "numberOfBytes": "32"
      }
    }
  }
}