{
  "address": "0x1cd4b3dC8e6a2308F7987303d421505968a542Dc",
  "abi": [
    {
      "inputs": [],
      "name": "accountId",
      "outputs": [
        {
          "internalType": "string",
          "name": "",
          "type": "string"
        }
      ],
      "stateMutability": "view",
      "type": "function"
    },
    {
      "inputs": [],
      "name": "accountStorageBases",
      "outputs": [
        {
          "internalType": "bytes32[]",
          "name": "",
          "type": "bytes32[]"
        }
      ],
      "stateMutability": "view",
      "type": "function"
    },
    {
      "inputs": [],
      "name": "onRedelegation",
      "outputs": [
        {
          "internalType": "bool",
          "name": "",
          "type": "bool"
        }
      ],
      "stateMutability": "nonpayable",
      "type": "function"
    }
  ],
  "transactionHash": "0xad975d3104f32ebc2825a8aa0dd63ab9c78193df94069ed48bf9128d818ea25f",
  "args": [],
  "numDeployments": 1,
  "solcInputHash": "80a75d98b002b5239cdd5ff21d8cb4cf",
  "bytecode": "0x60808060405234601557610238908161001b8239f35b600080fdfe608080604052600436101561001357600080fd5b60003560e01c908163492a88a2146101ca575080638626e88b1461013157639cfd7cff1461004057600080fd5b3461012c5760007ffffffffffffffffffffffffffffffffffffffffffffffffffffffffffffffffc36011261012c576040516020810181811067ffffffffffffffff8211176100fd576040526000815260405190602082528181519182602083015260005b8381106100e55750507fffffffffffffffffffffffffffffffffffffffffffffffffffffffffffffffe0601f836000604080968601015201168101030190f35b602082820181015160408784010152859350016100a5565b7f4e487b7100000000000000000000000000000000000000000000000000000000600052604160045260246000fd5b600080fd5b3461012c5760007ffffffffffffffffffffffffffffffffffffffffffffffffffffffffffffffffc36011261012c5760206040518181019080821067ffffffffffffffff8311176100fd579080604052600082526000368137604051928392818401908285525180915260408401929160005b8281106101b357505050500390f35b8351855286955093810193928101926001016101a4565b3461012c5760007ffffffffffffffffffffffffffffffffffffffffffffffffffffffffffffffffc36011261012c5780600160209252f3fea26469706673582212205f5b41a548282c380d65065295162bc8ec2d6632b759b0ef675364bb98d2e98864736f6c634300081b0033",
  "devdoc": {
    "kind": "dev",
    "methods": {},
    "version": 1
  },
  "userdoc": {
    "kind": "user",
    "methods": {},
    "version": 1
  },
  "storageLayout": {
    "storage": [],
    "types": null
  }
}