{
  "address": "0x4873593fC8e788eFc06287327749fdDe08C0146b",
  "abi": [
    {
      "inputs": [
        {
          "internalType": "bytes",
          "name": "transactions",
          "type": "bytes"
        }
      ],
      "name": "multiSend",
      "outputs": [],
      "stateMutability": "payable",
      "type": "function"
    }
  ],
  "transactionHash": "0x73983d0ab3d325ee032ac1277c466abcc6e7cb3b216a64639be59d3171ac8d06",
  "args": [],
  "numDeployments": 1,
  "bytecode": "0x608060405234801561001057600080fd5b506101a7806100206000396000f3fe60806040526004361061001e5760003560e01c80638d80ff0a14610023575b600080fd5b6100dc6004803603602081101561003957600080fd5b810190808035906020019064010000000081111561005657600080fd5b82018360208201111561006857600080fd5b8035906020019184600183028401116401000000008311171561008a57600080fd5b91908080601f016020809104026020016040519081016040528093929190818152602001838380828437600081840152601f19601f8201169050808301925050505050505091929192905050506100de565b005b805160205b8181101561016c578083015160f81c6001820184015160601c3081150281179050601583018501516035840186015160558501870160008560008114610130576001811461014057610145565b6000808585888a5af19150610145565b600080fd5b506000811415610159573d6000803e3d6000fd5b82605501870196505050505050506100e3565b50505056fea264697066735822122000250349ea75d699aeb18c12c69612fd1acc8c66ad1710a840b49574ece9b09364736f6c63430007060033"
}