{
  "address": "0xF086D01b8C0AF21523CFA7DAF7C2D9fd17279109",
  "abi": [
    {
      "inputs": [
        {
          "internalType": "address[]",
          "name": "modules",
          "type": "address[]"
        }
      ],
      "name": "enableModules",
      "outputs": [],
      "stateMutability": "nonpayable",
      "type": "function"
    }
  ],
  "args": [],
  "numDeployments": 1,
  "solcInputHash": "fe13ff0768f2aeb66af895e06501a790",
  "bytecode": "0x6080604052348015600f57600080fd5b506102258061001f6000396000f3fe608060405234801561001057600080fd5b506004361061002b5760003560e01c80638d0dc49f14610030575b600080fd5b61004361003e36600461010c565b610045565b005b60005b81811015610107573063610b592584848481811061006857610068610183565b905060200201602081019061007d91906101b2565b6040517fffffffff0000000000000000000000000000000000000000000000000000000060e084901b16815273ffffffffffffffffffffffffffffffffffffffff9091166004820152602401600060405180830381600087803b1580156100e357600080fd5b505af11580156100f7573d6000803e3d6000fd5b5050600190920191506100489050565b505050565b6000806020838503121561011f57600080fd5b823567ffffffffffffffff81111561013657600080fd5b8301601f8101851361014757600080fd5b803567ffffffffffffffff81111561015e57600080fd5b8560208260051b840101111561017357600080fd5b6020919091019590945092505050565b7f4e487b7100000000000000000000000000000000000000000000000000000000600052603260045260246000fd5b6000602082840312156101c457600080fd5b813573ffffffffffffffffffffffffffffffffffffffff811681146101e857600080fd5b939250505056fea2646970667358221220cc0532c570b197ffc3a947d6d651d236c784102c51a4962a4031bb3d7a09897364736f6c634300081b0033",
  "devdoc": {
    "custom:security-contact": "bounty@safe.global",
    "details": "The Safe `setup` function accepts `to` and `data` parameters for a delegate call during initialization. This      contract can be specified as the `to` with `data` ABI encoding the `enableModules` call so that a Safe is      created with the specified modules. In particular, this allows a ERC-4337 compatible Safe to be created as part      of a ERC-4337 user operation with the `Safe4337Module` enabled right away.",
    "kind": "dev",
    "methods": {
      "enableModules(address[])": {
        "details": "This call will only work if used from a Safe via delegatecall. It is intended to be used as part of the      Safe `setup`, allowing Safes to be created with an initial set of enabled modules.",
        "params": {
          "modules": "The modules to enable."
        }
      }
    },
    "title": "SafeModuleSetup - A utility contract for setting up a Safe with modules.",
    "version": 1
  },
  "userdoc": {
    "kind": "user",
    "methods": {
      "enableModules(address[])": {
        "notice": "Enable the specified Safe modules."
      }
    },
    "version": 1
  },
  "storageLayout": {
    "storage": [],
    "types": null
  }
}